:020000040800F2
:1000000090530020ED050008C1020008C30200085B
:10001000DB020008E7020008F3020008000000000D
:10002000000000000000000000000000FF020008C7
:100030000103000800000000030600080303000895
:100040000706000807060008070600089948000888
:100050000706000807060008050300080706000851
:10006000070600080706000807060008070600083C
:10007000070600080706000807060008070600082C
:10008000A5C80008070600080706000807060008BC
:10009000070600080706000807060008070600080C
:1000A00007060008413E000807060008070600088A
:1000B000633E0008853E0008A73E000807060008CA
:1000C000E944000807060008C945000807060008BB
:1000D000070600088D4F0008CFC800080706000873
:1000E00007060008F1480008070600080706000890
:1000F000EB3E000807060008070600080706000890
:100100000706000807060008C93E000807060008A1
:100110000706000807060008C379000837D400085E
:10012000070600080706000807060008070600087B
:1001300000F002F800F0B4F80AA090E8000C824445
:100140008344AAF10107DA4501D100F0A9F8AFF222
:10015000090EBAE80F0013F0010F18BFFB1A43F0A5
:10016000010318477C4C01009C4C01000A444FF0ED
:10017000000C10F8013B13F0070408BF10F8014B06
:100180001D1108BF10F8015B641E05D010F8016B4B
:10019000641E01F8016BF9D113F0080F1EBF10F8AF
:1001A000014BAD1C0C1B09D16D1E58BF01F801CBD2
:1001B000FAD505E014F8016B01F8016B6D1EF9D555
:1001C0009142D6D37047000000230024002500266A
:1001D000103A28BF78C1FBD8520728BF30C148BFAA
:1001E0000B6070476E290EF0C58470290EF0CD802B
:1001F000662911F0FC84652911F0F984672911F052
:10020000F684612911F0F58403681B0A28BF41F0C8
:10021000800169290EF03E8064290EF03B8075292B
:100220000EF038806F290EF0C28778290EF0998081
:10023000E9290EF05D87E4290EF05A87F5290EF0C2
:100240005787EF290EF0BF87F8290EF098800368D2
:10025000DB0928BF41F0800163290EF0DE86732997
:100260000EF0E386E3290FF0F782F3290FF0FC820A
:10027000002070471FB59DE803000EF0CFFB0EF085
:10028000ADFB04000020002110F0D2FB401C606098
:100290000020002110F0E2FBE0601FBD10B510BD92
:1002A0000FF0CBFD1146FFF7E5FF07F068FB0FF0FD
:1002B000E9FD03B4FFF7F2FF03BC0FF019FE0000E5
:1002C000704711A11F4804F0EBFD1F48006800F0C3
:1002D000010000B100BE00BFFEE71CA1194804F0F8
:1002E000DFFD00BFFEE728A1164804F0D9FD00BFDE
:1002F000FEE734A1134804F0D3FD00BFFEE77047CA
:1003000070477047704700000D0A2A2A2A2A2A2AB5
:100310002A2A2A2A2A2A2A2A2A2A2A2A2A486172A0
:10032000644661756C745F48616E646C65722A2AFC
:100330002A2A2A2A2A2A2A2A2A2A2A2A2A2A2A2A1D
:100340002A0D0A0000380140F0ED00E00D0A2A2ACB
:100350002A2A2A2A2A2A2A2A2A2A2A2A2A2A2A2AFD
:100360002A4D656D4D616E6167655F48616E646CB5
:1003700065722A2A2A2A2A2A2A2A2A2A2A2A2A2A5A
:100380002A2A2A2A2A0D0A000D0A2A2A2A2A2A2A71
:100390002A2A2A2A2A2A2A2A2A2A2A2A2A42757311
:1003A0004661756C745F48616E646C65722A2A2AB6
:1003B0002A2A2A2A2A2A2A2A2A2A2A2A2A2A2A2A9D
:1003C0000D0A00000D0A2A2A2A2A2A2A2A2A2A2A5B
:1003D0002A2A2A2A2A2A2A2A2A5573616765466107
:1003E000756C745F48616E646C65722A2A2A2A2AC9
:1003F0002A2A2A2A2A2A2A2A2A2A2A2A2A2A0D0A9A
:10040000000000000CB50020019000906C480068CE
:1004100040F480306A49086000BF6948006800F411
:10042000003000900198401C0190009818B9019884
:10043000B0F5A06FF1D16248006800F4003010B14F
:100440000120009001E0002000900098012843D195
:100450005C48006840F010005A490860084600688F
:1004600020F0030008600846006840F002000860C1
:10047000534840685249486008464068486008460A
:10048000406840F4806048600846406820F47C1072
:1004900048600846406840F4881048600846006894
:1004A00040F08070086000BF4548006800F00070B0
:1004B0000028F9D04248406820F0030040494860D5
:1004C0000846406840F00200486000BF3C48406871
:1004D00000F00C000828F9D10CBD10B5FFF792FF11
:1004E00010BD10B53648006840F00100344908607E
:1004F0000846406834490840314948600846006869
:10050000324908402E4908600846006820F48020DF
:1005100008600846406820F4FE0048604FF41F0061
:100520008860FFF7DAFF4FF000602949086010BDCE
:1005300010B5002100200022214B5B6803F00C0164
:1005400021B1042906D0082928D107E0214B224CEB
:10055000236027E0214B204C236023E0184B5B688D
:1005600003F47010164B5B6803F48032022303EB34
:10057000904022B91A4B4343174C23600DE0104BB7
:100580005B6803F4003323B1164B4343124C2360E2
:1005900003E0124B4343104C236003E00D4B0E4C21
:1005A000236000BF00BF064B5B68C3F303130E4C10
:1005B000E15C094B1B68CB40074C236010BD000079
:1005C00000100240002002400000FFF8FFFFF6FE8E
:1005D00008ED00E000127A0000000020001BB700C8
:1005E00000093D00808D5B00040000200948804721
:1005F00009480047FEE7FEE7FEE7FEE7FEE7FEE705
:10060000FEE7FEE7FEE7FEE704480549054A064B1C
:1006100070470000E304000831010008904B0020FF
:1006200090530020904F0020904F0020314901430B
:10063000314A1160704770B5002100230F22C47841
:1006400004B32D4C246804F4E064C4F5E064210A8A
:10065000C1F10403CA40447804FA03F184781440D9
:1006600021430901254C0678A155047804F01F05A3
:100670000124AC4005786D11AD0005F1E025C5F809
:10068000004109E0047804F01F050124AC401C4D32
:100690000678761145F8264070BD1A4A0A40024392
:1006A000154B1B1F1A60704739B1134A121D12688F
:1006B0000243114B1B1D1A6006E00F4A121D1268FF
:1006C00082430D4B1B1D1A607047042808D14FF060
:1006D000E021096941F004014FF0E022116107E0D7
:1006E0004FF0E021096921F004014FF0E02211618F
:1006F000704700000000FA050CED00E000E400E0A7
:1007000080E100E080FFFF1F10B50446CC48844222
:1007100008D10121042000F02DFB0021042000F06D
:1007200029FB46E0C748844208D10121082000F097
:1007300021FB0021082000F01DFB3AE0C248844262
:1007400008D10121102000F015FB0021102000F03D
:1007500011FB2EE0BD48844208D10121202000F089
:1007600009FB0021202000F005FB22E0B84884426C
:1007700008D10121402000F0FDFA0021402000F0C6
:10078000F9FA16E0B348844208D10121802000F034
:10079000F1FA0021802000F0EDFA0AE0AE48844230
:1007A00007D10121801500F0E5FA0021A01500F025
:1007B000E1FA10BD10B50121084600F0DBFA002176
:1007C000012000F0D7FA10BD2DE9F04102460025C6
:1007D0000026002000230024002791F803C00CF01D
:1007E0000F0591F803C00CF0100CBCF1000F03D002
:1007F00091F802C04CEA050591F800C0BCF1000F69
:1008000031D0146800202BE04FF0010C0CFA00F3FB
:10081000B1F800C00CEA03069E4220D183004FF0DD
:100820000F0C0CFA03F7BC4305FA03FC4CEA040472
:1008300091F803C0BCF1280F06D14FF0010C0CFA5F
:1008400000FCC2F814C00AE091F803C0BCF1480FE4
:1008500005D14FF0010C0CFA00FCC2F810C0401C8E
:100860000828D1D31460B1F800C0BCF1FF0F34DD0B
:10087000546800202EE000F1080C4FF0010808FA3F
:100880000CF3B1F800C00CEA03069E4221D18300AC
:100890004FF00F0C0CFA03F7BC4305FA03FC4CEACB
:1008A000040491F803C0BCF1280F05D100F1080C35
:1008B00008FA0CF8C2F8148091F803C0BCF1480F94
:1008C00007D100F1080C4FF0010808FA0CF8C2F843
:1008D0001080401C0828CED35460BDE8F0814FF64C
:1008E000FF710180022181700421C17070470246AE
:1008F000002093680B400BB1012000E000207047FE
:100900000146886880B2704702460020D3680B40D9
:100910000BB1012000E0002070470146C86880B29A
:10092000704701617047416170470AB1016100E0A1
:1009300041617047C16070474FF480320A43826161
:100940008161826182698269704702460020434B5F
:1009500018684FF68073184040EA021008433F4B76
:10096000186070473E49C8617047F0B50A460023D9
:1009700000240021002500F00046B6F1004F02D10E
:10098000364EF16901E0354E7168C0F3034583B21C
:1009900000F44016B6F5401F08D121F070612F4ECB
:1009A000766826F070662D4F7E6012E000F48016A7
:1009B000B6F5801F06D1032606FA05F4A14341F0DF
:1009C000706106E0460D360103FA06F6B14341F0C8
:1009D000706122B1460D360103FA06F6314300F08C
:1009E0000046B6F1004F02D11C4EF16101E01B4EF2
:1009F0007160F0BD30B500228B071C0F0F2303FA86
:100A000004F2164B08338C1053F824309343134CE4
:100A100008348D1044F8253023468C1053F82430C8
:100A20008C07240F00FA04F423430C4C08348D1077
:100A300044F8253030BD0A49DC31086070470000B9
:100A400000080140000C014000100140001401406A
:100A500000180140001C014000200140000001403E
:100A600000002042DF48006840F00100DD490860D6
:100A700008464068DC490840DA4948600846006892
:100A8000DA490840D74908600846006820F4802009
:100A900008600846406820F4FE0048604FF41F00DC
:100AA00088607047CF49096821F48031CD4A1160D0
:100AB0001146096821F480211160B0F5803F03D010
:100AC000B0F5802F0ED106E0C649096841F48031A7
:100AD000C44A116007E0C349096841F4A021C14A32
:100AE000116000E000BF00BF704710B50146002252
:100AF000002300204A11012A02D1BA4C236806E0E3
:100B0000022A02D1B74C236A01E0B64C636A01F0B5
:100B10001F02012494401C400CB1012000E0002081
:100B200010BD38B5002000900024002500BF312002
:100B3000FFF7DBFF05460098401C00900098B0F5D9
:100B4000A06F01D0002DF2D03120FFF7CEFF08B109
:100B5000012400E00024204638BD01460020A14ABF
:100B6000106820F0F80040EAC10010607047A0490A
:100B700008607047024600209A4B586820F47C10A9
:100B800042EA01031843974B58607047984908663A
:100B9000704701460020934A506820F00300084344
:100BA000506070478F48406800F00C007047014665
:100BB00000208C4A506820F0F000084350607047D5
:100BC00001460020874A506820F4E06008435060E6
:100BD000704701460020834A506820F4605040EA84
:100BE000C1005060704729B17E4A527A02437D4B62
:100BF0005A7204E07B4A527A82437A4B5A727047A7
:100C00007B49D8310860704701460020754A50681A
:100C100020F440400843506070470021714A203260
:100C20001170704A82F82010012802D004280AD1DD
:100C300004E001216B4A2032117005E00521694A68
:100C40002032117000E000BF00BF704769490860A2
:100C500070476449096A0143624A116270476549F5
:100C600044390860704730B5002100220024002379
:100C70005C4D6D6805F00C0121B1042905D00829EF
:100C800023D105E05C4D056022E05C4D05601FE06E
:100C9000544D6D6805F47012524D6D6805F4803442
:100CA000022505EB92421CB9554D554305600BE0FA
:100CB0004C4D6D6805F400351DB1524D554305602E
:100CC00002E04E4D5543056002E04B4D056000BF0C
:100CD00000BF444D6D6805F0F00109094A4D6B5C99
:100CE0000568DD4045603F4D6D6805F4E061090A27
:100CF000454D6B5C4568DD4085603A4D6D6805F497
:100D00006051C90A404D6B5C4568DD40C560354D9A
:100D10006D6805F44041890B3C4D6B5CC568B5FBC3
:100D2000F3F5056130BD29B12E4A526902432D4BBE
:100D30005A6104E02B4A526982432A4B5A61704738
:100D400029B1284A92690243264B9A6104E0254A58
:100D500092698243234B9A61704729B1214AD26933
:100D60000243204BDA6104E01E4AD26982431D4BE4
:100D7000DA61704729B11B4AD2680243194BDA6025
:100D800004E0184AD2688243164BDA60704729B1F2
:100D9000144A12690243134B1A6104E0114A1269A2
:100DA0008243104B1A6170471249403908607047FE
:100DB0000F49C86470470B49C87170470948406AB9
:100DC00040F0807007494862704701460020054A9C
:100DD00092680A400AB1012000E0002070470149F2
:100DE00088727047001002400000FFF8FFFFF6FE17
:100DF000000042428004424200127A00001BB70009
:100E000000093D00808D5B001400002024000020BC
:100E100010B50446FE48844208D10121C014FFF7F2
:100E2000A9FF0021E014FFF7A5FFC4E0B4F1804F53
:100E300008D101210846FFF7AAFF00210120FFF792
:100E4000A6FFB8E0F348844208D101210220FFF751
:100E50009EFF00210220FFF79AFFACE0EE4884429B
:100E600008D101210420FFF792FF00210420FFF7A1
:100E70008EFFA0E0E948844208D101210820FFF755
:100E800086FF00210820FFF782FF94E0E4488442B7
:100E900008D101211020FFF77AFF00211020FFF771
:100EA00076FF88E0DF48844208D101212020FFF747
:100EB0006EFF00212020FFF76AFF7CE0DA488442C1
:100EC00008D101214014FFF755FF00216014FFF7FE
:100ED00051FF70E0D548844209D10121C804FFF7D1
:100EE00049FF00214FF40020FFF744FF63E0D048A2
:100EF000844209D101210805FFF73CFF00214FF48E
:100F00008010FFF737FF56E0CA48844209D101211B
:100F10004805FFF72FFF00214FF40010FFF72AFFCD
:100F200049E0C548844208D101214020FFF72FFF46
:100F300000214020FFF72BFF3DE0C048844208D14C
:100F400001218020FFF723FF00218020FFF71FFFF2
:100F500031E0BB48844208D101218015FFF717FF1B
:100F60000021A015FFF713FF25E0B648844209D100
:100F700001210804FFF7FEFE00214FF48030FFF747
:100F8000F9FE18E0B048844209D101214804FFF776
:100F9000F1FE00214FF40030FFF7ECFE0BE0AB4810
:100FA000844208D101218804FFF7E4FE00214FF4B8
:100FB0008020FFF7DFFE10BD00220288944B98428C
:100FC0000ED0994B98420BD0B0F1804F08D0914B86
:100FD000984205D0904B984202D0904B984204D151
:100FE0004FF68F731A404B881A438D4B984207D0A7
:100FF0008C4B984204D04FF6FF431A40CB881A43DB
:1010000002808B8883850B880385814B98420BD0A7
:10101000854B984208D08B4B984205D08A4B98421A
:1010200002D08A4B984201D10B7A03860123838236
:10103000704770B5002400220023058C4FF6FE7621
:1010400035400584028C8388048B4FF68F752C40C5
:10105000B51E2C400D882C43751E2A400D892A434D
:101060004D882A436A4DA8420BD06F4DA84208D044
:10107000744DA84205D0744DA84202D0734DA842C9
:1010800013D14FF6F7752A404D892A434FF6FB7569
:101090002A408D882A434FF6FF652B404FF6FF55B7
:1010A0002B408D892B43CD892B4383800483CD88AE
:1010B0008586028470BD70B5002400220023058C53
:1010C0004FF6EF7635400584028C8388048B48F612
:1010D000FF752C404FF6FF452C400D884FF6FF76EC
:1010E00006EA05252C434FF6DF752A400D8906EAEE
:1010F00005152A434D8806EA05152A43444DA842A2
:1011000002D0494DA8421DD14FF67F752A404D8926
:101110004FF6FF7606EA05152A434FF6BF752A40BB
:101120008D8806EA05152A434FF6FF352B404FF20E
:10113000FF752B408D8906EA85052B43CD8906EA8C
:1011400085052B4383800483CD880587028470BD89
:1011500070B5002400220023058C4FF6FF66354051
:101160000584028C8388848B4FF68F752C404FF654
:10117000FC752C400D882C434FF6FF552A400D89F5
:101180004FF6FF7606EA05252A434D8806EA05252F
:101190002A431F4DA84202D0234DA8421DD14FF231
:1011A000FF752A404D894FF6FF7606EA05252A434A
:1011B0004FF6FF352A408D8806EA05252A434EF66C
:1011C000FF752B404DF6FF752B408D8906EA0515FE
:1011D0002B43CD8906EA05152B4383808483CD8874
:1011E0008587028470BD70B5002200230024058C21
:1011F0004EF6FF7635400584038C8488828B48F652
:10120000FF752A404FF6FF452A400D8820E0000078
:10121000002C01400004004000080040000C004089
:10122000001000400014004000340140004C014018
:10123000005001400054014000180040001C0040D4
:1012400000200040004001400044014000480140AF
:101250004FF6FF7606EA05252A434DF6FF752B402B
:101260000D8906EA05352B434D8806EA05352B43E3
:10127000FA4DA84202D0FA4DA84208D14BF6FF75AC
:101280002C408D894FF6FF7606EA85152C43848025
:101290008283CD88A0F84050038470BD828B4FF2CA
:1012A000FF331A408283828B4FF6FF7303EA0123D8
:1012B0001A4382837047F0B50C4615460022002180
:1012C0000026078C4EF6FF7C07EA0C070784828B0A
:1012D000018C4FF6FF7707EA043640F6FF473A40A5
:1012E0004FF6FF7707EA05273A434FF6FF7707EAFD
:1012F00003373A43D94FB8420ED0D94FB8420BD03A
:10130000B0F1804F08D0D74FB84205D0D64FB84281
:1013100002D0D64FB84206D14DF6FF77394046F499
:101320008057394305E047F6FF57394044F480576A
:10133000394382830184F0BD828B4FF6F3731A40E8
:101340008283828B0A4382837047F0B50C46154630
:10135000002200210026078C4FF6FF6C07EA0C07DD
:101360000784828B018C4FF6FF7707EA04264FF63D
:101370000C773A404FF6FF7707EA03172F433A43BB
:10138000B64FB8420ED0B64FB8420BD0B0F1804F36
:1013900008D0B44FB84205D0B34FB84202D0B34FD3
:1013A000B84206D14FF6FF57394046F480773943AB
:1013B00005E04FF2FF57394044F480773943828388
:1013C0000184F0BD028B4FF2FF331A400283028B7F
:1013D0004FF6FF7303EA01231A4302837047F0B507
:1013E0000C461546002200210026078C4FF6EF7CA4
:1013F00007EA0C070784028B018C4FF6FF7707EA98
:10140000041640F6FF473A404FF6FF7707EA0337E6
:101410003A434FF6FF7707EA05273A438F4FB84222
:101420000ED08F4FB8420BD0B0F1804F08D08D4F07
:10143000B84205D08C4FB84202D08C4FB84206D18A
:101440004FF6DF77394046F01007394305E04FF695
:101450005F77394044F01007394302830184F0BDBF
:10146000028B4FF6F3731A400283028B0A43028306
:101470007047F0B50C46154600220021068C4FF649
:10148000FE773E400684028B018C4FF60C7632408C
:101490007E1C06EA03162E433243704EB0420ED035
:1014A0006F4EB0420BD0B0F1804F08D06D4EB042BD
:1014B00005D06D4EB04202D06C4EB04206D14FF610
:1014C000FD76314044F00106314305E04FF6F576F4
:1014D000314044F00106314302830184F0BD70B510
:1014E00005460C465D4885420ED05D4885420BD0CE
:1014F000B5F1804F08D05B48854205D05A488542F7
:1015000002D05A48854200D100E000BF208850B97F
:101510002389A28861882846FFF7ABFFE188284627
:10152000FFF79EFF25E0208804280AD12389A2889E
:1015300061882846FFF753FFE1882846FFF742FFFE
:1015400017E0208808280AD12389A28861882846C4
:10155000FFF7FBFEE1882846FFF7EEFE09E023894E
:10156000A28861882846FFF7A6FEE1882846FFF793
:1015700095FE70BD2DE9F04105460C460026012779
:10158000608808B9022600E00026A088012801D161
:10159000022700E001272088A0B92389A28861885A
:1015A0002846FFF766FFE1882846FFF759FF2389A1
:1015B0003A4631462846FFF712FFE1882846FFF7F2
:1015C00001FF13E02389A28861882846FFF707FFFF
:1015D000E1882846FFF7F6FE23893A463146284639
:1015E000FFF747FFE1882846FFF73AFFBDE8F081A3
:1015F0000A884B881A438B881A43CB881A430B8975
:101600001A434B891A438B891A43A0F84420704728
:101610004FF6FF71818000210180C18041800172FD
:1016200070470021018041808180C180018141811A
:101630008181C18170470021018041800121818029
:101640000021C1800181704700210180418081809B
:10165000C18001814181818170470000002C0140DF
:10166000003401400004004000080040000C00402D
:1016700021B1028842F00102028004E002884FF6A4
:10168000FE731A400280704731B1B0F8442042F432
:101690000042A0F8442005E0B0F84420C2F30E0256
:1016A000A0F8442070471AB183890B43838102E07C
:1016B00083898B43838170478182704741EA0203AB
:1016C000A0F8483070471AB183890B43838102E048
:1016D00083898B438381704701894FF6F8721140EB
:1016E000018170470A46002101894FF68F73194026
:1016F00011430181704730B504460D462946204606
:10170000FFF7F0FF208940F00700208130BD2DE970
:10171000F04104460D4616461F46602D06D13B4655
:10172000012231462046FFF75AFE05E03B460122E2
:1017300031462046FFF79DFE29462046FFF7D2FF9F
:10174000208940F007002081BDE8F08130B50C46CB
:1017500000210189C9B24FF6FF7505EA032515433B
:1017600025432943018130BD2DE9F04105460E4650
:1017700017469846002443463A4631462846FFF726
:10178000E5FF2C894FF6F870044044F007044FF64B
:101790008F70044044F070042C81BDE8F081F0B5F6
:1017A00004460D4616461F463B463246294620460D
:1017B000FFF7CCFF208940F480402081F0BD0185F7
:1017C000828270470A46002101884FF68F731940C4
:1017D000114301807047F0B50C4615461E460021A6
:1017E000002200230189028B038C4FF6F8773940E1
:1017F00021434FF6FC473A4040F201173A434FF677
:10180000DD773B404FF6FF7707EA06172F433B4350
:10181000018102830384F0BD0A460021018B4FF64B
:101820008F7319401143018370470A460021018BD1
:1018300048F6FF7319404FF6FF7303EA022319437A
:10184000018370470A460021818B4FF68F73194040
:101850001143818370470A460021818B48F6FF734C
:1018600019404FF6FF7303EA02231943818370473F
:1018700021B1028842F08002028004E002884FF623
:101880007F731A400280704721B1828842F00402BF
:10189000828004E082884FF6FB731A408280704792
:1018A00021B1828842F00802828004E082884FF6EB
:1018B000F7731A408280704721B1828842F001029A
:1018C000828004E082884FF6FE731A40828070475F
:1018D0000A460021018B4FF6F7731940114301832B
:1018E00070470A460021018B4FF2FF7319404FF6F3
:1018F000FF7303EA02231943018370470A4600215C
:10190000818B4FF6F77319401143818370470A4664
:101910000021818B4FF2FF7319404FF6FF7303EAEA
:1019200002231943818370470A460021018B4FF639
:10193000FB7319401143018370470A460021018B54
:101940004FF6FF3319404FF6FF7303EA02231943A2
:10195000018370470A460021818B4FF6FB731940C3
:101960001143818370470A460021818B4FF6FF3374
:1019700019404FF6FF7303EA02231943818370472E
:101980000A460021018B4FF67F73194011430183F2
:1019900070470A460021018BC1F30E014FF6FF7319
:1019A00003EA02231943018370470A460021818B11
:1019B0004FF67F7319401143818370470A46002117
:1019C000818BC1F30E014FF6FF7303EA0223194323
:1019D000818370470A460021018C4FF6FD73194040
:1019E0001143018470470A460021018C4FF6F773BA
:1019F00019401143018470470A460021018C4FF6BB
:101A0000DF7319404FF6FF7303EA02131943018491
:101A100070470A460021018C4FF67F7319404FF63C
:101A2000FF7303EA02131943018470470A46002139
:101A3000018C4FF6FF5319404FF6FF7303EA022360
:101A40001943018470470A460021018C4FF2FF734D
:101A500019404FF6FF7303EA0223194301847047CC
:101A60000A460021018C4DF6FF7319404FF6FF73B3
:101A700003EA023319430184704730B5002301247F
:101A80008C40A3B2048C9C430484048C02FA01F5BC
:101A9000ADB22C43048430BD30B5002304248C4007
:101AA000A3B2048C9C430484048C02FA01F5ADB209
:101AB0002C43048430BD70B5034600200024184632
:101AC000183001258D40ACB21D8CA5431D8409B191
:101AD000082909D100EB6100056825F07005056053
:101AE0000568154305600EE00D1FC5F34E0528443B
:101AF000056825F4E045056005684FF6FF7606EABF
:101B000002263543056070BD21B1028842F0020211
:101B1000028004E002884FF6FD731A40028070478D
:101B200021B1028842F00402028004E002884FF6EC
:101B3000FB731A400280704721B1828842F0800214
:101B4000828004E082884FF67F731A40828070475B
:101B500002884FF6F7731A40028002880A43028017
:101B6000704782884FF68F731A40828082880A43BA
:101B70008280704702894FF6F8731A400281028909
:101B80000A430281704702894FF67F731A4002812F
:101B900002890A43028170478184704781857047BA
:101BA000818670470187704781877047A0F8401091
:101BB000704702884FF6FF431A40028002880A43AA
:101BC000028070470146888E70470146088F704733
:101BD0000146888F70470146B1F8400070470146C2
:101BE000888C70470146088D704702460020138A92
:101BF0000B400BB1012000E000207047CA43028275
:101C0000704730B50246002000230024158A05EAFB
:101C10000103958905EA010413B10CB1012000E02C
:101C2000002030BDCA4302827047000010B5044650
:101C3000FB48844209D101218803FFF79BF800216A
:101C40004FF48040FFF796F832E0F648844209D11D
:101C500001214804FFF79BF800214FF40030FFF703
:101C600096F825E0F048844209D101218804FFF765
:101C70008EF800214FF48020FFF789F818E0EB4838
:101C8000844209D10121C804FFF781F800214FF4F3
:101C90000020FFF77CF80BE0E548844208D10121E1
:101CA0000805FFF774F800214FF48010FFF76FF874
:101CB00010BD2DE9F04786B005460E460024A24629
:101CC00000BFA1460027B08900B100BF2F462C8A73
:101CD0004CF6FF700440F08804432C82AC894EF629
:101CE000F3100440B08831890843718908430443E4
:101CF000AC81AC8A4FF6FF400440B0890443AC820B
:101D000001A8FEF7B0FFC648874202D1DDF810A057
:101D100001E0DDF80CA0A88900F4004040B10AEB16
:101D2000CA0000EB0A1031684900B0FBF1F807E087
:101D30000AEBCA0000EB0A1031688900B0FBF1F829
:101D40006420B8FBF0F004012009642101FB108934
:101D5000A88900F4004040B1322000EBC900B0FB7C
:101D6000F1F000F00700044308E0322000EB091016
:101D70006421B0FBF1F000F00F0004432C8106B0A9
:101D8000BDE8F0874FF41651016000218180C180C9
:101D900001810C21418100218181704710B50246EB
:101DA0000020108A4FF2FF0318400B884C88234311
:101DB0008C882343CC8823431843108210BD002114
:101DC000018041808180C180704721B1828942F4C5
:101DD0000052828104E082894DF6FF731A408281AD
:101DE0007047F0B50346002400260025002040F689
:101DF0006A17B94200D100BF1846C1F3421401F07E
:101E00001F06012707FA06F5012C01D10C3004E06A
:101E1000022C01D1103000E014301AB107682F43B2
:101E2000076002E00768AF430760F0BD1AB1838A1C
:101E30000B43838202E0838A8B4383827047028A4A
:101E40004FF6F0731A400282028A0A4302827047F8
:101E500082894FF2FF731A40828182890A4382810C
:101E6000704721B1828942F00202828104E08289B6
:101E70004FF6FD731A4082817047028A4FF6DF7376
:101E80001A400282028A0A430282704721B1028A02
:101E900042F48042028204E0028A4BF6FF731A4049
:101EA00002827047C1F30802828070470146888829
:101EB000C0F308007047818941F0010181817047BA
:101EC000028BD2B20283028B42EA01220283704764
:101ED000028B02F47F420283028B0A430283704723
:101EE00021B1828A42F02002828204E0828A4FF687
:101EF000DF731A408282704721B1828A42F0100259
:101F0000828204E0828A4FF6EF731A408282704721
:101F100021B1828A42F00802828204E0828A4FF66E
:101F2000F7731A408282704721B1828942F40042DD
:101F3000828103E08289C2F30E028281704721B15F
:101F4000828A42F40062828204E0828A4FF2FF7346
:101F50001A4082827047828A4FF6FB731A4082824F
:101F6000828A0A438282704721B1828A42F0020249
:101F7000828204E0828A4FF6FD731A4082827047A3
:101F800002460020B1F5007F00D100BF13880B404E
:101F90000BB1012000E00020704701F40072B2F59F
:101FA000007F00D100BFCA430280704770B502466F
:101FB000002400230025002040F66A16B14200D11B
:101FC00000BFC1F3421501F01F03012606FA03F317
:101FD000012D02D19689334006E0022D02D1168AE6
:101FE000334001E0968A33400C12012606FA04F4CD
:101FF0001688344013B10CB1012000E0002070BD00
:1020000010B50022002340F66A14A14200D100BF9F
:102010000A1201249440A3B2DC43048010BD0000E6
:10202000003801400044004000480040004C00409F
:102030000050004010B50446FA48844208D10121FE
:102040004015FEF797FE00216015FEF793FE17E09E
:10205000F548844208D101210015FEF78BFE0021CE
:102060002015FEF787FE0BE0F048844208D10121DD
:10207000C803FEF77FFE00214FF40040FEF77AFE12
:1020800010BD30B50246002000235068E84C2040C7
:102090000D790C6844EA0524204350609068E54CB3
:1020A0002040D1E902542C434D7944EA45042043B1
:1020B0009060D06A20F470000C7C641EE4B223436C
:1020C00040EA0350D06230BD0021016001714171CE
:1020D0008160C16001210174704721B1826842F0C2
:1020E0000102826003E0826822F001028260704790
:1020F00021B1826842F48072826003E0826822F437
:1021000080728260704710B50023CBB21AB1446868
:102110001C43446002E044689C43446010BD8168F5
:1021200041F0080181607047014600208A6802F092
:1021300008020AB1012000E000207047816841F0E8
:10214000040181607047014600208A6802F00402A1
:102150000AB1012000E00020704721B1826842F4FA
:10216000A002826003E0826822F4A00282607047CD
:10217000014600208A6802F480020AB1012000E0D2
:102180000020704710B50A4600210023416821F461
:102190006041531E41EA4331416010BD21B14268A4
:1021A00042F40062426003E0426822F4006242604E
:1021B0007047F0B504460D4600200021092D11DDC1
:1021C000E068A5F10A0606EB4607072606FA07F1BE
:1021D0008843A5F10A0606EB460603FA06F1084312
:1021E000E0600CE0206905EB4507072606FA07F1D9
:1021F000884305EB450603FA06F108432061072AE8
:102200000FDA606B561E06EB86071F2606FA07F1EB
:102210008843561E06EB860605FA06F108436063FE
:1022200022E00D2A0FDA206BD61F06EB86071F2649
:1022300006FA07F18843D61F06EB860605FA06F173
:102240000843206310E0E06AA2F10D0606EB860762
:102250001F2606FA07F18843A2F10D0606EB860653
:1022600005FA06F10843E062F0BD21B1826842F44C
:102270008012826003E0826822F4801282607047DC
:102280000146C86C80B2704766484C3000687047A1
:1022900021B1426842F48062426003E0426822F465
:1022A00080624260704721B1426842F480524260CD
:1022B00003E0426822F48052426070470A460021DF
:1022C000816821F4E04111438160704721B1826847
:1022D00042F40042826003E0826822F4004282609D
:1022E000704721B1826842F40212826003E0826882
:1022F00022F4021282607047014600208A6802F4CC
:1023000000120AB1012000E000207047F0B5044639
:102310001546002000220026092911DDE068A1F100
:102320000A0707EB470C072707FA0CF29043A1F1C5
:102330000A0707EB470703FA07F21043E0600CE0D7
:10234000206901EB410C072707FA0CF2904301EBDF
:10235000410703FA07F210432061A06BC0F3015656
:10236000EF1C06F1010CA7EB0C0707EB870C1F27EE
:1023700007FA0CF29043EF1C06F1010CA7EB0C07D7
:1023800007EB870701FA07F21043A063F0BD10B511
:102390000A4600210023816B21F44011531E41EABB
:1023A0000351816310BD08B5002300930090009B8A
:1023B0000B440093009B1A6008BD08B5024600203C
:1023C0000090009201F12800009B184400900098B2
:1023D000006880B208BD0A4600214168164B1940CA
:1023E0001143416070474162826270470A46002192
:1023F000416821F01F0111434160704740B1094914
:102400000831096841F40001064A0832116007E00A
:1024100004490831096821F40001024A08321160B8
:10242000704700000024014000280140003C0140AA
:10243000FFFEF0FFFDF7F1FFFFFD3FFF024600202A
:1024400013680B400BB1012000E000207047CA4325
:102450000260704770B502460020002300240B1272
:102460005568CEB205EA060415681D4015B10CB1D9
:10247000012000E0002070BD00220A12D343036057
:102480007047000001684FF6FE72114001600021A4
:10249000016041608160C1608D49884208D18C49EA
:1024A0000839496841F00F01894A083A51608AE0C9
:1024B00087491431884208D185490839496841F073
:1024C000F001834A083A51607DE081492831884211
:1024D00008D17F490839496841F470617C4A083A5B
:1024E000516070E07A493C31884208D17849083916
:1024F000496841F47041764A083A516063E0744992
:102500005031884208D172490839496841F4702134
:102510006F4A083A516056E06D496431884208D1EB
:102520006B490839496841F47001694A083A5160B9
:1025300049E067497831884208D1654908394968D6
:1025400041F07061624A083A51603CE0614988425A
:1025500006D1011F096841F00F01021F116032E02E
:102560005C491431884208D15A49091F096841F071
:10257000F001584A121F116025E05649283188425F
:1025800008D15449091F096841F47061514A121F6A
:10259000116018E04F493C31884208D14D49091F6C
:1025A000096841F470414B4A121F11600BE0494920
:1025B0005031884207D14749091F096841F4702109
:1025C000444A121F1160704710B50022026847F696
:1025D000F0739A430C6A8B6823430C6923434C695C
:1025E00023438C692343CC6923434C6A23438C6A7D
:1025F00023431A430260CB6843600B6883604B68D7
:10260000C36010BD0021016041608160C160016153
:1026100041618161C161016241628162704721B1A2
:10262000026842F00102026004E002684FF6FE73A5
:102630001A40026070471AB103680B43036002E05E
:1026400003688B43036070474160704701464868E8
:1026500080B2704701460020002201F080531BB178
:102660001C4B083B1A6802E0194B083B1A6802EA47
:1026700001030BB1012000E00020704700F0805101
:1026800019B11449091F086002E01149083948606E
:10269000704701460020002201F080531BB10D4B12
:1026A000083B1A6802E00A4B083B1A6802EA010379
:1026B0000BB1012000E00020704700F0805119B1FB
:1026C0000449091F086002E0014908394860704761
:1026D000080002400804024010B50120FEF764FB28
:1026E0000020FEF761FB10BD2A49086070472949A8
:1026F000091F086070472749843108607047014608
:102700000020254A10884FF67F4210400843224A95
:1027100010807047014600201F4A10884FF68072D3
:10272000104008431C4A1080704708B500220092F0
:10273000194A2C3A0092009A02440092009A1160C1
:1027400008BD08B501460020009013482C380090C1
:102750000098084400900098008808BD0D489C30FF
:102760000068C0B270470C480830008840F0010093
:1027700009490831088070470648A0300068C0B297
:10278000704705480830008840F0020002490831CF
:102790000880704704860D422C6C0040002044499C
:1027A0000860091D0860091D0860091D086041488E
:1027B0003F4914310860704700213D498279002A61
:1027C0003AD00A46126803689A430B461A600A1DFB
:1027D000126803689A430B1D1A60027911440A6853
:1027E00003681A430A60324A0832126803689A433F
:1027F0002F4B08331A601A1D126803689A432C4B3A
:102800000C331A604279102A0ED11A1F126803681D
:102810001A43274B08331A601A1D126803681A43BB
:10282000234B0C331A600DE02149427911440A68A8
:1028300003681A430A6005E0027911440A680368D4
:102840009A430A6070470021016001710C214171B7
:102850000021817170471649103109680143144AFB
:1028600010321160704701460020114A143212687C
:102870000A400AB1012000E0002070470C491431E1
:1028800008607047014600200022094B1B6803EADC
:102890000102074B14331B680B4013B10AB101202E
:1028A00000E00020704702491431086070470000C2
:1028B00000040140FFFF0F0010B501210807FEF7DB
:1028C00066FA00214FF08050FEF761FA10BD2A49E8
:1028D0000862704728490861704701460020274A6E
:1028E000106820F0E0000843106070472249A031D2
:1028F0000860704710B502460020204B186820F091
:102900000300104318601E4B1B6843F004031C4C6B
:102910002360012901D130BF00E020BF184B1B68A4
:1029200023F00403164C236010BD1448006840F0E7
:102930000400124908600846006840F00200086080
:102940000F48006840F004000D49086000BF00BF58
:1029500030BF704701460020084A52680A400AB159
:10296000012000E0002070470449096841EA800125
:10297000024A11607047000000000E4200700040E3
:1029800010ED00E029B1504A128802434E4B1A80E4
:1029900004E04D4A128882434B4B1A8070474A48E4
:1029A000001D008840F010004749091D088070474D
:1029B0004548001D00884FF6EF7108404249091D47
:1029C00008807047002140481C300188001F0088A3
:1029D00041EA0040704700B50246FFF7E0FF100CE7
:1029E000394918310880091D0A80FFF7E1FF00BD51
:1029F00000B50246FFF7D3FFC2F303403249083166
:102A00000880091D0A80FFF7D3FF00BD00B502460C
:102A1000FFF7C5FF100C2C4920310880091D0A80E2
:102A2000FFF7C6FF00BD00202749103109880907BC
:102A3000080B2549143109880843704700BF224814
:102A4000001D008800F020000028F8D070471E48C4
:102A5000001D00884FF6F77108401B49091D0880CA
:102A600000BF1948001D008800F008000028F8D0B9
:102A7000704701460020144A121D12880A400AB10C
:102A8000012000E0002070470F49091D098881439B
:102A90000D4A121D11807047014600200A4A121D7E
:102AA00012880A40D0B2084A12880A4012B108B10E
:102AB000012000E0002070470349091D0988814377
:102AC000014A121D118070470028004010B50446CD
:102AD000BE48844208D101218014FEF74BF9002141
:102AE000A014FEF747F916E0B948844208D1012145
:102AF0000014FEF74CF900212014FEF748F90AE013
:102B0000B448844207D10121C013FEF740F90021E7
:102B1000E013FEF73CF910BD10B50022028802F464
:102B200041520B884C8823438C882343CC88234311
:102B30000C8923434C8923438C892343CC89234329
:102B40001A430280838B4FF2FF74234083830B8AE6
:102B5000038210BD2DE9F04F85B005460C464FF0BD
:102B6000000902274FF000084FF0010B0026B24683
:102B7000A88B4FF240010840A88302202884B5F8B2
:102B80001C90A068022801D100BF38E0A08810B9CD
:102B90004FF0010B01E04FF0020B8D48854200D150
:102BA00000E000BF6846FEF75EF8DDF800A0E088B0
:102BB000B0F5007F0AD14FEA1A2000EB80004000F8
:102BC000A168B0FBF1F0401D86B20BE04FEA4B105C
:102BD000BAFBF0F000EB80004000A168B0FBF1F020
:102BE000401D86B20A20B6FBF0F606F00108A6EBFF
:102BF0000800C0F34F074FF6FF7000EA0828022FC5
:102C000001DBFF2F02DD02274FF00008E08840EAD9
:102C1000080038432884A088A189084361880843B4
:102C20002188084340F4006040EA0909A5F81C9097
:102C300005B0BDE8F08F0021018041808180C18016
:102C4000018141818181C181072101827047002179
:102C5000018041808180C1800221816000218181C9
:102C6000704721B1028842F04002028004E00288ED
:102C70004FF6BF731A400280704721B1828B42F435
:102C80008062828304E0828B4FF6FF331A40828396
:102C9000704730B5002400230C110125A540ABB2CC
:102CA0001AB185881D43858002E085889D43858013
:102CB00030BD1AB183880B43838002E083888B4345
:102CC00083807047818170470146888970474FF63D
:102CD000FF62914204D0028842F48072028004E0D4
:102CE00002884FF6FF631A400280704721B1828844
:102CF00042F00402828004E082884FF6FB731A409F
:102D00008280704702884FF2FF731A400280028867
:102D10000A4302807047018841F480510180704766
:102D200021B1028842F40052028004E002884DF68C
:102D3000FF731A400280704702460020012901D02B
:102D4000108B00E0908A70470146088A7047B1F501
:102D5000804F04D1028842F48042028004E002885D
:102D60004BF6FF731A400280704702460020138919
:102D70000B400BB1012000E000207047CA430281E4
:102D80007047F0B50246002000240023002501F022
:102D90000F070126BE40B4B20B1101269E40B3B20C
:102DA000968806EA03051689264016B10DB1012062
:102DB00000E00020F0BD10B5002201F00F04012357
:102DC000A3409AB2D343038110BD000000300140FC
:102DD00000380040003C004010B50446F7488442EB
:102DE00009D101214805FDF7D2FF00214FF4001061
:102DF000FDF7CDFF08E001218805FDF7C8FF0021A0
:102E00004FF48000FDF7C3FF10BD2DE9F04385B0FE
:102E100004460D460026B1460427DFF8A483A688A1
:102E20004FF6C07006406846FDF71DFFDDF80880CC
:102E3000E448B8FBF0F01FFA80F946EA0906A680DC
:102E400020884FF6FE71084020800026DE49286861
:102E500088420CD828684000B8FBF0F087B2042FF5
:102E600000DA04273E4309F10100208427E0E888C6
:102E70004BF6FF71884206D1286800EB4000B8FB92
:102E8000F0F087B209E0286800EBC00101EB001008
:102E9000B8FBF0F087B247F48047C7F30B0008B9DE
:102EA00047F0010747F4004006434FF4967009FBD2
:102EB00000F04FF47A7190FBF1F0401C2084A6835F
:102EC000208840F00100208026884FF6F53006402B
:102ED000A8886989084306432680A8892989084368
:102EE000208105B0BDE8F08341F288310160002106
:102EF00081804BF6FF71C1800021018141814FF437
:102F000080418181704721B1028842F00102028034
:102F100004E002884FF6FE731A400280704721B128
:102F2000828842F40062828004E082884FF2FF735C
:102F30001A408280704721B1828842F48052828098
:102F400004E082884EF6FF731A408280704721B1F8
:102F5000028842F48072028004E002884FF6FF6328
:102F60001A400280704721B1028842F40072028048
:102F700004E002884FF6FF531A400280704721B1E7
:102F8000028842F48062028004E002884FF6FF3338
:102F90001A40028070470A46002181894FF601736A
:102FA000194002F0FE0319438181704721B18289E3
:102FB00042F00102828104E082894FF6FE731A40DA
:102FC0008281704721B1028842F04002028004E011
:102FD00002884FF6BF731A40028070471AB1838887
:102FE0000B43838002E083888B4383807047018298
:102FF00070470146088AC0B2704712B141F0010122
:1030000002E04FF6FE7319400182704708B5024690
:1030100000200090009200980844009000980088DA
:1030200008BD21B1028842F40042028003E0028818
:10303000C2F30E0202807047B1F5006F04D102881E
:1030400042F40062028004E002884FF2FF731A40EB
:1030500002807047B1F5005F04D1028842F400524B
:10306000028004E002884DF6FF731A400280704728
:1030700021B1028842F48052028004E002884EF6B8
:10308000FF731A4002807047B1F5006F04D10288C7
:1030900042F40062028004E002884FF2FF731A409B
:1030A0000280704721B1028842F02002028004E0D1
:1030B00002884FF6DF731A40028070470146088B82
:1030C0000012704721B1028842F01002028004E031
:1030D00002884FF6EF731A400280704721B90288C8
:1030E00042F08002028004E002884FF67F731A40AB
:1030F00002807047B1F5804F05D0828B4BF6FF738D
:103100001A40828303E0828B42F4804282837047BC
:1031100070B502460024002500230020958A138BF9
:103120001B0445EA030626F07F4404EA01068E42AA
:1031300001D1012000E0002070BD10B50146002043
:10314000002300228B8A0A8B120443EA020424F033
:103150007F4010BD0CB50246002000230193009370
:1031600000920B0F019321F07F41019B1BB1009B4B
:103170001433009303E0090C009B18330093009B69
:103180001B680B400BB1012000E000200CBD0022A9
:1031900021F07F42D3438382704730B5024600203E
:1031A0000023948801F0E06504EA154321F07F4193
:1031B000948A0C4054B14BB1012008E00054004007
:1031C00000127A0040420F00A0860100002030BDAE
:1031D000002221F07F42D343838270472DE9F04FD4
:1031E00085B0064617469846DDE9104BDDE90E9A94
:1031F00000250121304600F063F94FF40040FDF74F
:1032000003FD3046FEF716FF012C05DD8DF810405A
:1032100001208DF8040007E0012C05D101208DF874
:10322000100000208DF804008DF80580CDF80CA06A
:10323000CDF80890009769463046FEF722FF09E076
:10324000681CC2B21BF8051004233046FEF7B1FF1C
:10325000681CC5B2A542F3DB1048864204D112981F
:1032600010B10120FFF7CAF801213046FEF735FF03
:103270003046FEF754FF00BF3046FEF755FF0028EA
:10328000FAD13046FEF75AFF00BF3046FEF75BFF2B
:103290000028FAD105B0BDE8F08F000000240140FD
:1032A0002DE9FF4F8BB00C4615461E4618AF97E828
:1032B000800F01210B9800F003F92046FFF7E2F898
:1032C000009501960297CDF80C80CDF81090CDF8BE
:1032D00014A0CDF818B01D9807901E9808901F985C
:1032E000099020980A9069462046FFF76DF90FB0C3
:1032F000BDE8F08F10B503684FF6FE7423400360FD
:10330000C1604260036843F00103036010BD000028
:103310002DE9F84305460C4616461F46DDF8208089
:103320004FF0FF090121284600F0CAF810B14846C5
:10333000BDE8F8838DF80360ADF800408DF80270A9
:1033400069462846FDF740FAB8F1000F20D05148F1
:1033500090F8A00010281BDA4E4890F8A0004D49C4
:1033600041F82080084690F8A010403040F82150E5
:10337000403890F8A010803020F81140803890F844
:10338000A000401C434981F8A0004FF0000901E073
:103390004FF001094846CBE710B501210846FDF77B
:1033A000CFFC01213C48FDF7E0FA00210120FDF7A8
:1033B000C7FC10BD70B501460022364803680C46B4
:1033C00014E011E0187808B9104670BD13F8015BDD
:1033D00014F8016BB54207D0501CC0B202462D4D07
:1033E00055F820300C4600E0ECE700BF294890F883
:1033F000A0009042E5DCFF20E7E7F0B505460E4669
:10340000FF2401270DB93846F0BD2846FFF7D2FF4B
:103410000446204890F8A000A04212DD46B11D48A5
:10342000803030F81410403850F82400016107E073
:103430001848803030F81410403850F824004161AA
:1034400000273846E0E7C160704770B50546FF24A5
:10345000FF260DB9304670BD2846FFF7ABFF044686
:103460000C4890F8A000A0420DDD0A48403050F80A
:10347000240080680749803131F81410084008B1F1
:10348000012600E000263046E5E70146886880B264
:1034900070470000BC07002000023000F8B5044669
:1034A0000D4616461F468DF800408DF803508DF8E6
:1034B00001608DF802706846FDF7BDF8F8BD0000A8
:1034C0002DE9F04105460E462C460127B4F1804F08
:1034D0000BD31748844208D2A20A012101FA02F054
:1034E0003146FDF73AFC00271FE0114884420ED315
:1034F000104884420BD24FF48031611A8A0A0121AC
:1035000001FA02F03146FDF71BFC00270DE00948E7
:1035100084420AD34FF40031611A8A0A012101FA68
:1035200002F03146FDF7FFFB00273846BDE8F08189
:1035300000000140000002402DE9F04F87B0044632
:103540000D4616461F46DDE911ABDDF840904FF001
:10355000010801212046FFF7B3FF5F4884420ED1E6
:10356000002003231822E02100905C48FFF7D0FEE2
:10357000E0215A48FDF7D5F94FF0000824E05848FB
:1035800084420ED1002003231822A1000090554848
:10359000FFF7BEFEA1005348FDF7C3F94FF0000846
:1035A00012E0514884420FD1FFF7F6FE00200323BA
:1035B0001822382100904B48FFF7AAFE38214948CD
:1035C000FDF7AFF94FF00008B8F1000F18D1ADF8D2
:1035D0000850ADF80A60ADF80C70ADF80E90ADF87B
:1035E00010A0ADF812B01398ADF814001498ADF80F
:1035F00016001598ADF8180002A92046FFF78CFABE
:10360000404607B0BDE8F08F2DE9F04F87B0044683
:103610000D4616461F46DDE911ABDDF840904FF030
:10362000010801212046FFF74BFF2B4884420ED1B1
:10363000002003231822A02100902848FFF768FEED
:10364000A0212648FDF76DF94FF0000824E024483A
:10365000844210D10020032318224FF4204100900F
:103660002048FFF755FE4FF420411E48FDF759F959
:103670004FF0000810E01C4884420DD100200323C5
:103680001822282100901748FFF742FE28211548EC
:10369000FDF747F94FF00008B8F1000F18D1ADF869
:1036A0000850ADF80A60ADF80C70ADF80E90ADF8AA
:1036B00010A0ADF812B01398ADF814001498ADF83E
:1036C00016001598ADF8180002A92046FFF724FA55
:1036D000404607B0BDE8F08F0030014000080140CF
:1036E00000380040000C0140003C00402DE9FE4342
:1036F00007460C4615461E46DDE90A890121384673
:10370000FFF7DEFEADF80640ADF80250ADF80460FC
:10371000ADF800808DF8089069463846FDF74CFCFE
:10372000BDE8FE832DE9FF4F85B00C4615461E46C9
:1037300012AF97E8800FADF80450ADF80660ADF811
:103740000870ADF80A80ADF80C90ADF80EA0ADF899
:1037500010B01798ADF8120004F0010038B101A9BB
:103760000598FDF766FC08210598FEF7B1F804F00E
:10377000020038B101A90598FDF79DFC08210598C4
:10378000FEF7AFF804F0040038B101A90598FDF781
:10379000DFFC08210598FEF7B1F804F0080038B105
:1037A00001A90598FDF71FFD08210598FEF7AFF860
:1037B00001210598FDF768FF01210598FEF758F8EB
:1037C00009B0BDE8F08F00002DE9F04F85B0044648
:1037D0000D4616461F46DDE90FABDDF838904FF079
:1037E00001084348844212D10020032318226115A6
:1037F00000904048FFF78CFD0020032304221102B3
:1038000000903C48FFF784FD4FF0000856E03A482E
:10381000844212D10020032318220421009035484D
:10382000FFF776FD00200323042208210090314891
:10383000FFF76EFD4FF0000840E03048844212D19F
:10384000002003231822211500902D48FFF760FD6A
:10385000002003230422510200902948FFF758FD5D
:103860004FF000082AE02748844212D100200323A9
:103870001822211500902448FFF74AFD0020032359
:103880000422510200902048FFF742FD4FF000084B
:1038900014E01E48844211D1002003231822A114F1
:1038A00000901948FFF734FD00200323042211463D
:1038B00000901748FFF72CFD4FF00008B8F1000FFB
:1038C00012D101212046FFF7FBFD0195ADF81060F4
:1038D000ADF80E70ADF80C90ADF80AA0ADF808B0D8
:1038E00001A92046FEF7E5F9404605B0BDE8F08F96
:1038F00000380140000801400044004000480040FA
:10390000000C0140004C00400010014000500040FD
:10391000001401402DE9F04F85B004460D461646CF
:103920001F46DDE90FABDDF838904FF001081E4867
:1039300084420AD1002003231C22C02100901B488E
:10394000FFF7E6FC4FF000080CE01948844209D16B
:10395000002003231C22990200901448FFF7D8FC92
:103960004FF00008B8F1000F19D101212046FFF7F0
:10397000A7FD2046FFF730FA00212046FFF7C3FAE3
:10398000ADF80E50ADF810600197ADF80A90ADF8A3
:1039900008A0ADF80CB001A92046FFF736FA404662
:1039A00005B0BDE8F08F000000540040000C01405D
:1039B0000058004001460120964A914207D1964A9C
:1039C000127822B90122944B1A70002009E0934A20
:1039D000914206D1904A52781AB901228E4B5A7000
:1039E000002070478B49884203D100218A4A117018
:1039F00005E08A49884202D10021874A5170704708
:103A000030B589B004460D46824884421DD100205D
:103A1000A11420228B10CDE90532CDE90710081141
:103A2000802100220223CDE901327D4B0092CDE9B5
:103A3000031004F14C027B497A480838FFF730FC48
:103A400001217848FEF7EBFD1FE0744884421CD149
:103A50000020A11420228B10CDE90532CDE90710FA
:103A60000811802100220223CDE901326C4B009223
:103A7000CDE9031004F14C026B496B485838FFF74D
:103A80000FFC01216848FEF7CAFD684802210022A8
:103A9000CDE90305CDE901214FF46020012389031D
:103AA00000902046FFF79AFB01212046FEF720FBFD
:103AB00001212046FEF751FB09B030BD70B5044628
:103AC0000E46002506E0681CC0B20546022801DB50
:103AD000002070BD5548405DB042F4D14D4884424D
:103AE00006D100BF0220FEF7B5FD0028FAD008E09D
:103AF0004A48844205D100BF4D48FEF7ABFD00287F
:103B0000FAD0474830F81500E3E72DE9F0470746BB
:103B100088461446002500260DE041463846FFF74A
:103B2000CDFF82460DF00EFF814629460DF0AEFD19
:103B30000546701CC6B2A642EFDB20460DF002FF20
:103B40008246514628460DF003FE81460DF0C2FE26
:103B500080B2BDE8F0872DE9FC5F044689469246B5
:103B6000524649462046FFF7D0FF019001980DF0DC
:103B7000E9FE4FF08B4100900DF0EAFD83460DF019
:103B800059FD07464FF066322A4B0DF043FA0546C1
:103B90000CF07AFFBDE8FC9F2DE9F84F1D48FFF7B8
:103BA00009FF002834D10A2210211A48FFF7ADFF7F
:103BB00004460DF0C7FE009000980DF03BFD8046D6
:103BC0004FF066321B4B0DF025FA064600221A4BC9
:103BD0000DF048F804460CF057FF00900D48FFF731
:103BE00001FF00980DF026FD0646144A144B0DF017
:103BF00045FB8046134A144B0DF034F8044600226E
:103C0000124B0CF073FF82460CF03EFFBDE8F88FBC
:103C10000020FBE70024014028000020003C014078
:103C20002A0000200800024058040240E61C010857
:103C30000000021066660A400000B040E17A14AE4F
:103C400047E1F63F22FDF675E09C713F00003940E8
:103C50004FF0E020006920F004004FF0E0210861FF
:103C60000920274908700846007800EB4001C1EBA5
:103C7000C0104FF6FF7101EAC0002249088070476A
:103C8000002120F07F401E4A127842434FF0E0238B
:103C90005A6100229A6101221A6100BF4FF0E022AE
:103CA000116901F001021AB101F48032002AF5D045
:103CB00000224FF0E0231A619A617047002100B999
:103CC000704720F07F400F4A128842434FF0E023B4
:103CD0005A6100229A6101221A6100BF4FF0E0226E
:103CE000116901F001021AB101F48032002AF5D005
:103CF00000224FF0E0231A619A6100BFE0E7000064
:103D00002E000020300000202DE9FC4104460D4625
:103D100017461E46DDF8208000203B46024601463D
:103D2000CDE900502046FFF7E1FC7848844206D1F7
:103D30004346324601211920FFF7B0FB44E0B4F1BD
:103D4000804F06D14346324601211C20FFF7A6FBD7
:103D50003AE06F48844206D14346324601211D2095
:103D6000FFF79CFB30E06B48844206D14346324665
:103D700001211E20FFF792FB26E06748844206D10E
:103D80004346324601213220FFF788FB1CE063489E
:103D9000844206D14346324601213620FFF77EFB9E
:103DA00012E05F48844206D1434632460121372063
:103DB000FFF774FB08E05B48844205D14346324676
:103DC00001212C20FFF76AFB012211462046FDF756
:103DD0006AFC01212046FDF74BFCBDE8FC812DE982
:103DE000F04786B005460E4617461C46DDE90FA98A
:103DF000DDF8388000200323182241460090204639
:103E0000FFF786FA00204B4602460146CDE900A0A6
:103E10002846FFF76BFC00200223CDE90230049016
:103E20000590009001233A46314601902846FFF75D
:103E300079FC01212846FDF71BFC06B0BDE8F087A0
:103E400010B501213148FDF7DCFE012808D1012120
:103E50002E48FDF7E7FE34480068401C32490860F0
:103E600010BD10B501218807FDF7CBFE012808D150
:103E700001218007FDF7D6FE2B480068401C2A4927
:103E8000086010BD10B501212148FDF7BAFE0128D8
:103E900008D101211E48FDF7C5FE23480068401CDB
:103EA0002149086010BD10B501211A48FDF7A9FE8F
:103EB000012808D101211748FDF7B4FE1A4800680F
:103EC000401C1949086010BD10B501211248FDF7CA
:103ED00098FE012808D101210F48FDF7A3FE1248E2
:103EE0000068401C1049086010BD10B501210D4844
:103EF000FDF787FE012808D101210A48FDF792FE4F
:103F000009480068401C0849086010BD002C0140A9
:103F10000004004000080040000C00400010004079
:103F2000001400400034014034000020FC49888027
:103F3000704710B501460120FA4A914201D0012292
:103F400000E00022F84B9A5C4AB90122F54B9942F5
:103F500001D0012300E00023F34CE254002010BD07
:103F60000021F04A904201D0012200E00022EE4BF5
:103F7000995470473EB504460125EA48844201D170
:103F8000012000E002200246E8A1F04800F088FF8E
:103F900000204BF6FF72CDE90020ED4B4FF480423C
:103FA000111102902046FFF7B5FC01212046FEF7D3
:103FB000AAFF012211022046FFF710F8D9488442D7
:103FC00006D10023012211462020FFF767FA08E0FE
:103FD000E048844205D10023012211462220FFF748
:103FE0005DFA2046FFF7A5FF78B900252046FFF7C8
:103FF000B7FFCC48844201D1012000E002200246F4
:10400000D5A1D24800F04CFF0AE0C648844201D155
:10401000012000E002200246D5A1CC4800F040FF7C
:1040200028463EBD10B5BE4908680121FEF78FFF46
:1040300000BFBB490868D449FFF76AF80028F8D0E8
:1040400010BD10B5B64908680121FEF78CFF10BD00
:1040500001460020704710B5B14908680121FEF7FC
:104060008EFF10BD10B5AE4908680021FEF787FF2E
:1040700010BD70B50446AA4908682146FEF7B7FF8F
:1040800041F2883502E00120FFF7FAFDA4490868F3
:10409000BE49FFF73DF818B9681E80B2051EF2D17F
:1040A0000DB9012070BD0020FCE710B541F2883445
:1040B00002E00120FFF7E4FD99490868B2493F3169
:1040C000FFF726F818B9601E80B2041EF1D10CB9B2
:1040D000012010BD92490868FEF78BFFF9E72DE932
:1040E000F04705460E4617461C464FF0000970067D
:1040F0004FEA10698A480560FFF794FF884900225B
:1041000008684946FEF779FF41F2883802E001204D
:10411000FFF7B6FD824908689C49891EFEF7F8FF43
:1041200028B9A8F1010080B2B0F10008EFD1B8F1D0
:10413000000F02D10120BDE8F08741F2883802E08B
:104140000120FFF79DFD764908689049091FFEF799
:10415000DFFF28B9A8F1010080B2B0F10008EFD16B
:10416000B8F1000F01D10120E5E73846FFF781FFE4
:1041700041F28830FFF76CFF08B10120DBE74CB15A
:104180002078FFF776FF41F28830FFF761FF08B132
:104190000120D0E7FFF755FF0020CCE72DE9F047DD
:1041A00004460D4616461F464FF0000968064FEAC2
:1041B00010695B480460FFF735FF59490022086821
:1041C0004946FEF71AFF41F2883802E00120FFF766
:1041D00057FD534908686D49891EFEF799FF28B9B4
:1041E000A8F1010080B2B0F10008EFD1B8F1000FE2
:1041F00002D10120BDE8F08741F2883802E00120B9
:10420000FFF73EFD464908686049091FFEF780FF39
:1042100028B9A8F1010080B2B0F10008EFD1B8F1DF
:10422000000F01D10120E5E73046FFF722FF41F200
:104230008830FFF70DFF08B10120DBE7FFF7F2FE42
:104240003749012208684946FEF7D7FE41F288380F
:1042500002E00120FFF714FD314908684A49491C72
:10426000FEF756FF28B9A8F1010080B2B0F10008AE
:10427000EFD1B8F1000F01D10120BBE7FFF715FF27
:104280003870FFF7EFFEFFF7DCFE0020B2E72DE904
:10429000F04705460E4617461C46DDF820904FF0C5
:1042A000000A70064FEA106A1D480560FFF7BAFE63
:1042B0001B49002208685146FEF79FFE41F28838EC
:1042C00002E00120FFF7DCFC154908682F49891E30
:1042D000FEF71EFF28B9A8F1010080B2B0F1000876
:1042E000EFD1B8F1000F02D10120BDE8F08741F213
:1042F000883802E00120FFF7C3FC09490868234918
:10430000091FFEF705FF28B9A8F1010080B2B0F13E
:104310000008EFD1B8F1000F3AD10120E5E7000025
:104320003C000020005400403800002054697073A5
:104330003A094932432564206973204D61737465DD
:1043400072204D6F64650D0A0000000000380140C6
:104350003057050000580040546970733A094932DB
:104360004325642069732052656164790D0A000059
:10437000546970733A0949324325642069732045B2
:1043800072720D0A000000000100030084000700A3
:104390003846FFF76EFE41F28830FFF759FE08B14C
:1043A0000120A2E70DE02078FFF763FE41F288309C
:1043B000FFF74EFE08B1012097E7641C0A20FFF7C3
:1043C0005FFCB9F10000A9F1010101F0FF09EAD198
:1043D000FFF737FE002088E72DE9F04705460E4637
:1043E00017461C46DDF820804FF000094FEA4609C9
:1043F000AD480560FFF716FE09F0FF01AA4A1068F4
:104400000022FEF7FAFD41F2883A02E00120FFF7B0
:1044100037FCA5490868A549FEF77AFE28B9AAF134
:10442000010080B2B0F1000AF0D1BAF1000F02D160
:104430000120BDE8F08741F2883A02E00120FFF751
:104440001FFC994908689949891EFEF761FE28B941
:10445000AAF1010080B2B0F1000AEFD1BAF1000F69
:1044600001D10120E5E73846FFF703FE41F288302D
:10447000FFF7EEFD08B10120DBE7FFF7D3FD09F000
:10448000FF01894A10680122FEF7B7FD41F2883A20
:1044900002E00120FFF7F4FB834908688449FEF736
:1044A00037FE28B9AAF1010080B2B0F1000AF0D1BC
:1044B000BAF1000F01D10120BBE7FFF7CCFD08E006
:1044C000FFF7F3FD2070641CB8F1000F01D1FFF776
:1044D000C9FDB8F10000A8F1010101F0FF08EFD11A
:1044E000FFF7AFFD0020A4E710B54FF001217148A0
:1044F000FEF753FE012810D14FF001216D48FEF761
:1045000067FE6DA1714800F0CBFC6A481830008846
:1045100000F0010008B1FFF794FD6D496548FEF712
:104520003CFE012807D16A496248FEF751FE69A1A5
:10453000664800F0B5FC6F495E48FEF72EFE012884
:104540000BD16C495B48FEF743FE5A48183000888F
:1045500000F0010008B1FFF774FD67495548FEF708
:104560001CFE01280BD164495248FEF731FE63A1BD
:10457000564800F095FC69496948FEF708FE69490C
:104580004C48FEF70AFE012807D166494948FEF764
:104590001FFE65A14D4800F083FC68494548FEF7C1
:1045A000FCFD01280FD165494248FEF711FE64A1C8
:1045B000464800F075FC3F481830008800F00100C4
:1045C00008B1FFF73EFD10BD10B54FF00121544872
:1045D000FEF7E3FD012810D14FF001215048FEF70E
:1045E000F7FD5DA1394800F05BFC4D4818300088AC
:1045F00000F0010008B1FFF724FD35494848FEF7F7
:10460000CCFD012807D132494548FEF7E1FD57A10D
:104610002E4800F045FC37494148FEF7BEFD012811
:104620000BD134493E48FEF7D3FD3D481830008891
:1046300000F0010008B1FFF704FD2F493848FEF7EC
:10464000ACFD01280BD12C493548FEF7C1FD4FA127
:104650001E4800F025FC31493148FEF798FD3149EC
:104660002F48FEF79AFD012807D12E492C48FEF766
:10467000AFFD4EA1154800F013FC30492848FEF765
:104680008CFD01280FD12D492548FEF7A1FD4CA135
:104690000E4800F005FC22481830008800F00100A8
:1046A00008B1FFF7CEFC10BD3C00002082000700DF
:1046B0000200030000540040493243312042757328
:1046C000204572726F720D0A000000000038014030
:1046D0000002000149324331204172626974726103
:1046E00074696F6E206C6F7374204572726F720DF7
:1046F0000A000000000400010008000149324331B3
:10470000204F76657272756E2F556E646572727584
:104710006E204572726F720D0A000000400000109A
:1047200000580040001000014932433120504543F9
:10473000204572726F720D0A0000000000400001F7
:10474000493243312054696D654F7574204572724A
:104750006F720D0A00000000493243322042757327
:10476000204572726F720D0A000000004932433218
:10477000204172626974726174696F6E206C6F732C
:1047800074204572726F720D0A0000004932433284
:10479000204F76657272756E2F556E6465727275F4
:1047A0006E204572726F720D0A000000493243326A
:1047B00020504543204572726F720D0A00000000C0
:1047C000493243322054696D654F757420457272C9
:1047D0006F720D0A00000000704710B501214FF004
:1047E000C050FCF7BAFA0120FEF771F8FDF774FF2C
:1047F0004FF44070FCF72DFA0120FCF730FAFEF779
:104800001DF9FEF724F901210220FEF7BBF8FEF79F
:1048100015F9FEF7C4F84148FEF7EAF8FEF70EF97D
:104820000020FEF7D8F8FEF709F9FEF7C1F8FFF708
:10483000D3FF002010BD10B5044600F066F890B913
:1048400001214FF0C050FCF788FA0120FEF73FF835
:104850002046FEF7C0F8FEF7F1F800BF002030490F
:10486000087000BF00BF10BD70B5044600F04DF8E1
:1048700088B9FEF7E3F8FEF7A5F805192846FEF714
:10488000C5F8FEF7DBF8FEF7E2F800BF0020244988
:10489000087000BF00BF70BD10B50120FEF7FCF826
:1048A00048B10120FEF708F91E48007820F0010009
:1048B000401C1C4908700420FEF7EEF848B10420A3
:1048C000FEF7FAF81748007820F00200801C15491E
:1048D00008700220FEF7E0F848B10220FEF7ECF87D
:1048E0001048007820F00400001D0E49087010BD2B
:1048F00010B50C48007820F008000830094908700D
:104900004FF40030FDF7CFFF10BD012004490978B6
:1049100019B90121024A117000207047356E01005B
:10492000440000204500002001460120A84A914291
:1049300007D1A84A127822B90122A64B1A7000208A
:1049400014E0A54A914207D1A24A527822B9012225
:10495000A04B5A70002009E0A04A914206D19D4A1E
:1049600092781AB901229B4B9A700020704798499F
:10497000884203D10021974A11700CE09649884281
:1049800003D10021934A517005E09449884202D135
:104990000021904A9170704710B58AB004460720F4
:1049A00000214FF40073CDE90231CDE9041001205C
:1049B000022100234FF48272CDE9001019462046EF
:1049C000FEF7BAFD01212046FEF74BF900204FF417
:1049D00080510590CDE90601802108900190CDE934
:1049E000020104901020002304F10C027C49009085
:1049F0007B483038FEF754FC002202212046FEF7A7
:104A000058F900204FF480510590CDE9060180212E
:104A100008900190CDE902010490034604F10C02D4
:104A20006F49143900906E483038FEF739FC002287
:104A300001212046FEF73DF90AB010BD10B586B041
:104A40000446072000214FF40073CDE90231CDE97F
:104A500004100120022100234FF48272CDE90010DE
:104A60004FF440412046FEF767FD01212046FEF746
:104A7000F8F806B010BD2DE9F04104460E46174681
:104A80001D468DB95248844205D13A4631465448B4
:104A9000FEF730FC08E05048844205D13A463146E2
:104AA0004F482830FEF726FC012D12D14848844299
:104AB00006D13A4631464A481438FEF71BFC08E056
:104AC0004548844205D13A46314645481430FEF700
:104AD00011FCBDE8F081704770B505460E46002414
:104AE00005E0601CC4B2C82C01DD002070BD0221AD
:104AF0002846FEF73AF90028F3D031462846FEF75B
:104B0000E1F8002405E0601CC4B2C82C01DD0020DF
:104B1000ECE701212846FEF728F90028F3D02846C3
:104B2000FEF7D2F8C0B2E1E72DE9F04104460F46A6
:104B300015461E46DDF818800023324639462046C9
:104B4000FFF799FF0123424629462046FFF793FFCE
:104B5000012202212046FEF7ACF801221146204630
:104B6000FEF7A7F81A48844209D100BF2020FDF7BC
:104B700071FD0028FAD02020FDF780FD0DE01648D9
:104B800084420AD100BF4FF40050FDF763FD0028B6
:104B9000F9D04FF40050FDF771FD002202212046AC
:104BA000FEF787F8002201212046FEF782F8BDE8D3
:104BB000F08170B504460D4629462046FEF782F87E
:104BC00000BF02212046FEF7D0F80028F9D070BDC2
:104BD000003001404600002000380040003C00400A
:104BE0003000024001460120FA4A914207D1FA4AB8
:104BF000127822B90122F84B1A70002014E0F74A0B
:104C0000914207D1F44A527822B90122F24B5A70EC
:104C1000002009E0F24A914206D1EF4A92781AB98F
:104C20000122ED4B9A7000207047EA49884203D177
:104C30000021E94A11700CE0E849884203D10021C3
:104C4000E54A517005E0E649884202D10021E24A76
:104C5000917070472DE9F04104460E4617461D46F7
:104C60008DB9DC48844205D13A463146DD48FEF72D
:104C700041FB08E0D948844205D13A463146D9483B
:104C80003C30FEF737FB012D12D1D248844206D1C9
:104C90003A463146D3481430FEF72CFB08E0CF48A3
:104CA000844205D13A463146CE482830FEF722FBF1
:104CB000BDE8F08110B58AB0044600200090019054
:104CC0000C23024621460290C248FEF77DFD0121D9
:104CD000C048FDF77AF8012240F22441BD48FDF7B3
:104CE00080F80223012211462520FEF7D7FB002081
:104CF0004FF480510590CDE9060180210890019084
:104D0000CDE90201049010200023B24A121DB549DA
:104D10000090B4484438FEF7C3FA01228021AD4820
:104D2000FDF784F800230122AF49AA48FFF792FF5C
:104D300000204FF480510590CDE9060180210890B4
:104D40000190CDE9020104900346A24A121DA54933
:104D500014310090A3484438FEF7A2FA0122402102
:104D60009C48FDF763F80AB010BD10B58AB0044640
:104D70000020009001900C230246214602909748A3
:104D8000FEF722FD01219548FDF71FF8012240F2B0
:104D900024419248FDF725F800231A4601212620D8
:104DA000FEF77CFB00204FF480510590CDE9060111
:104DB000802108900190CDE9020104901020002389
:104DC000864A121D87493C31009086484438FEF7D8
:104DD00067FA012280218148FDF728F8002301228B
:104DE00081497E48FFF736FF00204FF4805105903F
:104DF000CDE90601802108900190CDE902010490DF
:104E00000346764A121D7749283100907548443888
:104E1000FEF746FA0223012211461020FEF73EFB60
:104E2000012202216F482830FDF705FC01224021B4
:104E30006A48FCF7FBFF0AB010BD2DE9F0410446BB
:104E40000D4616462046FFF7CDFE38BB2F4661487B
:104E500084420BD100BF4FF40050FDF7FBFB00284C
:104E6000F9D04FF40050FDF709FC0DE05B48844297
:104E70000AD100BF4FF00070FDF7ECFB0028F9D01D
:104E80004FF00070FDF7FAFB00233246394620460A
:104E9000FFF7E0FE2046FFF7C8FE00BFBDE8F08147
:104EA0000FB4F8B504462046FFF79CFE002839D120
:104EB0004D4D484884420BD100BF4FF40050FDF7E0
:104EC000C9FB0028F9D04FF40050FDF7D7FB0DE0E7
:104ED000424884420AD100BF4FF00070FDF7BAFB90
:104EE0000028F9D04FF00070FDF7C8FB4FF4807137
:104EF0003D4809F01CFD08A800903B48009A07991E
:104F000009F01AF900200090284609F0A0FC86B2AA
:104F10000023324634492046FFF79CFE2046FFF727
:104F200084FE00BFF8BC5DF814FB0FB438B5294807
:104F3000FFF758FE38BB2C4C00BF4FF40050FDF774
:104F400089FB0028F9D04FF40050FDF797FB4FF490
:104F50008071254809F0EBFC05A800902248009AD2
:104F6000049909F0E9F800200090204609F06FFC50
:104F700085B200232A461C491648FFF76BFE1548E8
:104F8000FFF753FE00BF38BC5DF814FB10B51021CD
:104F90001048FCF7F5FFE0B10120144981F89700B3
:104FA000002081F896000B48001D008840F2244143
:104FB0000848FCF7F2FF00210A481430FDF72FFBE8
:104FC000962008494439C865012106481430FDF788
:104FD00026FB10BD0038014049000020004400407D
:104FE0000048004044000240F8080020600800200B
:104FF00008B5002000906B46FF2250217748FFF74C
:10500000CDF810B90120764908707548007808BDC0
:1050100073B5044601257248007898B102E0052076
:1050200000F0D6F86D48FEF784FF0028F7D101ABF9
:10503000224650216948FFF752F805466949086839
:10504000FEF78EFF28467CBD2DE9F04704460D464D
:1050500016464FF0010862480078002835D0002736
:10506000B94602E0052000F0B3F85C48FEF761FFA6
:105070000028F7D120E02B46224650215748FFF761
:105080002EF880B1052000F0A3F809F10100C0B2AC
:105090008146052806DB53490868FEF761FF404654
:1050A000BDE8F08708E0601CC4B26D1C781CC7B274
:1050B000052000F08DF800BFB742DCDB49490868E5
:1050C000FEF74EFF4FF0000800BF4046E8E770B51E
:1050D00004460D4601264248007898B102E00520BA
:1050E00000F076F83D48FEF724FF0028F7D12B4664
:1050F000224650213948FFF751F8064639490868D9
:10510000FEF72EFF304670BDF8B504460D46164634
:10511000012733480078A0B102E0052000F058F8DC
:105120002E48FEF706FF0028F7D12B4622465021D5
:105130002A480096FFF750F907462A490868FEF703
:105140000FFF3846F8BD2DE9F74304461546012701
:1051500023480078002839D00026B0466019B0F501
:10516000807F02DD3846BDE8FE8302E0052000F0C6
:105170002FF81A48FEF7DDFE0028F7D11EE001AB3C
:10518000224650211548FEF7AAFF78B1052000F00D
:105190001FF808F1010080B28046052805DB11499F
:1051A0000868FEF7DDFE3846DDE707E0601CC4B2A4
:1051B000701C86B2052000F00BF800BFAE42DEDBAB
:1051C00008490868FEF7CCFE002700BF3846CAE74A
:1051D00010B50446A0B2FEF771FD10BD00580040A6
:1051E0004C0000203C00002070B504460D4600260F
:1051F000012C13DA0DB1012200E00022114604EB6C
:105200004402254B03EB82029068FEF7F6F80DB1DD
:10521000012000E000202149085519E0FF2C17D19A
:1052200014E00DB1012200E00022114606EB460217
:10523000194B03EB82029068FEF7DFF80DB10120F5
:1052400000E0002015498855701CC6B2012EE8DB2D
:1052500070BD38B50024FEF79FF816E004EB44005B
:105260000D4901EB8000806804EB44020B4603EB20
:1052700082020090918804EB440253F82200032339
:105280001022FEF745F8601CC4B2012CE6DB0021B9
:10529000FF20FFF7A9FF38BDE81C01084D000020E2
:1052A00070B505460024A048FBF737FB044624F4FC
:1052B000787405F01F0044EA401421469A48FBF731
:1052C00039FB9A48FBF729FB044624F0070444EA1B
:1052D000551421469548FBF72DFB0A20FEF7D0FC1C
:1052E00070BD10B5044692488088914909684861AC
:1052F0008F48008A8E49C96848612046FFF7D0FF71
:105300008B48808B8A49896908611420FEF7B8FCB4
:105310008748808B8649896948610520FEF7B0FC83
:1053200010BD10B504460A2000F0F7F880488088C8
:105330007F49096848617E48008A7D49C96848619B
:105340002046FFF7ADFF7A48808B7949896908616B
:105350001420FEF795FC7648808B75498969486171
:105360000520FEF78DFC10BD1CB50024012118207E
:10537000FBF7E6FCFEF710F816E004EB44006C497E
:1053800001EB8000806804EB44020B4603EB8202D1
:105390000090918804EB440253F82200032310226A
:1053A000FDF7B6FF601CC4B2032CE6DB10208DF8BD
:1053B00007004FF47870ADF8040003208DF8060064
:1053C00001A95948FBF700FA0720ADF8040001A92C
:1053D0005648FBF7F9F90F2000F09FF83820FFF747
:1053E00080FF052000F099F83820FFF77AFF0520AC
:1053F00000F093F83820FFF774FF3820FFF791FF93
:105400000820FFF78EFF0120FFF78BFF0620FFF734
:1054100088FF0C20FFF785FF4548808B4449896948
:1054200048611CBD0FB42DE9F0418AB0044600BFAD
:1054300001204049097819B901213E4A1170002024
:1054400000BF00284BD18046002701AD12A8009074
:10545000212101A8009B119A08F080FE00200090F5
:10546000C4F18F00C7B22046FFF75BFF2FE015F8AD
:10547000016B2F4880882E49096808612C48008AF2
:105480002B49C96848613046FFF70AFF2848808BDE
:105490002749896908611420FEF7F2FB2448808BB4
:1054A0002349896948610520FEF7EAFB00BF08F13E
:1054B0000100C0B28046B84209DD8F2C07DC4FF0F6
:1054C0000008C020FFF72DFF052000F026F82878FF
:1054D0000028CCD100BF1749087000BF00BF0AB038
:1054E000BDE8F0015DF814FB10B50446802C04D033
:1054F000C02C07D0FF2C0ED109E00FA18020FFF7B0
:1055000091FF08E00CA1C020FFF78CFF03E0012011
:10551000FFF707FF00BF00BF10BD10B50446A0B2E3
:10552000FEF7CCFB10BD0000000C01400010014054
:10553000F41C01084E0000202020202020202020E4
:10554000202020202020202000000000F8B500248A
:105550000025002622E004EB4400554901EB8000C1
:10556000806804EB44020B4603EB820200909188B2
:1055700004EB440253F8220003234822FDF7C8FE3F
:10558000002507E04B4800EB84004655701CC6B26E
:10559000681CC5B2042DF5DB601CC4B2042CDADB38
:1055A000F8BD70B50446FF25042C04D30DB10120CD
:1055B00070BD0020FCE704EB44013D4A02EB810191
:1055C0008868FDF742FF0546012D01D10020EFE775
:1055D0000DB90120ECE70120EAE770B50F250024A2
:1055E0005DE02046FFF7DDFFC0B10120A040324959
:1055F0000968814391B90120A0402F4909680843F7
:105600002D4908602D480078401CC0B22B49087015
:10561000142801DB14200870FF2070BD2046FFF71E
:10562000C0FF88BB0120A04023490968084058B347
:105630000120A0402049096881431F4801601F489C
:105640000078142807D100201C490870194800EB85
:105650008400C078E1E700201849087015E00A20AE
:10566000FEF72CFB2046FFF79CFF70B102E00520FF
:10567000FEF724FB2046FFF794FF0028F7D10D48E2
:1056800000EB84008078C8E707E0681EC0B2051E02
:10569000E5D1084810F82400BFE7601CC4B2042C10
:1056A0009FDB00200449086004490870FF20B4E72C
:1056B000181D0108F80900205000002054000020A7
:1056C00070B504460D460026042C2BDA0DB90122D4
:1056D00000E00022114604EB4402324B03EB82024D
:1056E0009068FDF78AFE0DB1012000E000202E49F0
:1056F000085524B9012D02D1FA202C4908701CB993
:1057000015B9002029490870012C04D1012D02D1BE
:10571000FA2026494870012C1ED1EDB900202349FA
:10572000487019E0FF2C17D114E00DB9012200E0F8
:105730000022114606EB46021A4B03EB82029068E8
:10574000FDF75BFE0DB1012000E0002016498855F1
:10575000701CC6B2042EE8DB70BD38B5002416E01C
:1057600004EB44000F4901EB8000806804EB440225
:105770000B4603EB82020090918804EB440253F83D
:10578000220003231022FDF7C3FD601CC4B2042CC9
:10579000E6DB0021FF20FFF793FF0020034908709C
:1057A000487038BD481D01085500002059000020F0
:1057B00008B5002000906B46E7224021B148FEF773
:1057C000EDFC10B90120B0490870AF48007808BD61
:1057D00010B50023FE224021AA48FEF780FC10BD30
:1057E00008B5002000906B46E7224021A548FEF74F
:1057F000D5FC9DF8000008BD70B503460C46154663
:1058000000210026002200BF13E0985C41400826DA
:105810000BE001F0800020B1312080EA4100C1B2EC
:1058200001E04806010E701EC6B2002EF1DC501CCD
:10583000C2B2A242E9DBA94201D0012070BD002022
:10584000FCE72DE9F84F82464FF0000B2AF0030ADF
:1058500050460CF077F800900BF0ECFE80468B4A37
:105860008B4B0BF0D7FB06468A4A8B4B0BF03EF96D
:1058700004460BF009F983465846BDE8F88F2DE938
:10588000F84F82464FF0000B2AF0030A50460CF006
:1058900059F800900BF0CEFE8046804A804B0BF00A
:1058A000B9FB064600227F4B0BF0DAFD04460BF0F5
:1058B000EBF883465846BDE8F88F2DE9F84F0546CA
:1058C0000C460027B846B946BA464FF08008FEF7A6
:1058D000A9FB7549002208684146FDF78EFB41F29D
:1058E000883602E00120FEF7CBF96F4908686F495E
:1058F000FDF70EFC18B9701E80B2061EF2D11EB95B
:105900004FF07E50BDE8F88F41F2883602E001206A
:10591000FEF7B6F9644908686449891EFDF7F8FB8B
:1059200018B9701E80B2061EF1D116B94FF07E5024
:10593000E8E72846FEF79DFB4CF25030FEF788FB67
:1059400008B10020DEE7FEF76DFB57490122086829
:105950004146FDF752FB41F2883602E00120FEF796
:105960008FF9514908685249FDF7D2FB18B9701EEA
:1059700080B2061EF2D116B94FF07E50C2E7FEF794
:105980006AFB502000F078F8FEF78FFB8DF80000DE
:10599000FEF761FBFEF789FB8DF80100FEF75BFB6C
:1059A000FEF783FB0746FEF75DFBFEF74AFB3A4630
:1059B00002216846FFF720FF9DF801009DF80010C6
:1059C00000EB01201FFA80F9E32D04D14846FFF7D0
:1059D00038FF824603E04846FFF751FF82461CB17C
:1059E00050460BF077FF208050468BE708B52648DD
:1059F000007800283FD02348FEF79BFA00283AD1D0
:105A000000900520FEF792FA1E4827490860FFF72C
:105A1000E7FE6420FEF734F90021E320FFF74DFF95
:105A2000194948604B2000F027F80021E520FFF7D6
:105A300044FF154988601E2000F01EF8FFF7D0FED5
:105A40001E2000F019F86B46E62240210D48FEF7B3
:105A500046FB6420FEF714F9FFF7C2FE6420FEF750
:105A60000FF9FFF7B5FE6420FEF70AF90E49086842
:105A7000FEF776FA00BF08BD10B50446A0B2FEF7E7
:105A80001DF910BD00580040080A0020D7A3703D42
:105A90000AF7653FCDCCCCCCCC6C47C07644CF77F1
:105AA00001405F3F000018403C00002082000700DA
:105AB0000200030010B504462146FD48FFF779F8BF
:105AC00010BD10B504464FF08050FA4908608013AD
:105AD00008602046FFF7EEFF4FF48050F54908605C
